{"abi":[{"type":"constructor","inputs":[],"stateMutability":"nonpayable"},{"type":"function","name":"allowance","inputs":[{"name":"owner","type":"address","internalType":"address"},{"name":"spender","type":"address","internalType":"address"}],"outputs":[{"name":"","type":"uint256","internalType":"uint256"}],"stateMutability":"view"},{"type":"function","name":"approve","inputs":[{"name":"spender","type":"address","internalType":"address"},{"name":"value","type":"uint256","internalType":"uint256"}],"outputs":[{"name":"","type":"bool","internalType":"bool"}],"stateMutability":"nonpayable"},{"type":"function","name":"balanceOf","inputs":[{"name":"account","type":"address","internalType":"address"}],"outputs":[{"name":"","type":"uint256","internalType":"uint256"}],"stateMutability":"view"},{"type":"function","name":"burn","inputs":[{"name":"amount","type":"uint256","internalType":"uint256"}],"outputs":[],"stateMutability":"nonpayable"},{"type":"function","name":"decimals","inputs":[],"outputs":[{"name":"","type":"uint8","internalType":"uint8"}],"stateMutability":"view"},{"type":"function","name":"name","inputs":[],"outputs":[{"name":"","type":"string","internalType":"string"}],"stateMutability":"view"},{"type":"function","name":"owner","inputs":[],"outputs":[{"name":"","type":"address","internalType":"address"}],"stateMutability":"view"},{"type":"function","name":"pause","inputs":[],"outputs":[],"stateMutability":"nonpayable"},{"type":"function","name":"paused","inputs":[],"outputs":[{"name":"","type":"bool","internalType":"bool"}],"stateMutability":"view"},{"type":"function","name":"renounceOwnership","inputs":[],"outputs":[],"stateMutability":"nonpayable"},{"type":"function","name":"symbol","inputs":[],"outputs":[{"name":"","type":"string","internalType":"string"}],"stateMutability":"view"},{"type":"function","name":"totalSupply","inputs":[],"outputs":[{"name":"","type":"uint256","internalType":"uint256"}],"stateMutability":"view"},{"type":"function","name":"transfer","inputs":[{"name":"to","type":"address","internalType":"address"},{"name":"value","type":"uint256","internalType":"uint256"}],"outputs":[{"name":"","type":"bool","internalType":"bool"}],"stateMutability":"nonpayable"},{"type":"function","name":"transferFrom","inputs":[{"name":"from","type":"address","internalType":"address"},{"name":"to","type":"address","internalType":"address"},{"name":"value","type":"uint256","internalType":"uint256"}],"outputs":[{"name":"","type":"bool","internalType":"bool"}],"stateMutability":"nonpayable"},{"type":"function","name":"transferOwnership","inputs":[{"name":"newOwner","type":"address","internalType":"address"}],"outputs":[],"stateMutability":"nonpayable"},{"type":"function","name":"unpause","inputs":[],"outputs":[],"stateMutability":"nonpayable"},{"type":"event","name":"Approval","inputs":[{"name":"owner","type":"address","indexed":true,"internalType":"address"},{"name":"spender","type":"address","indexed":true,"internalType":"address"},{"name":"value","type":"uint256","indexed":false,"internalType":"uint256"}],"anonymous":false},{"type":"event","name":"OwnershipTransferred","inputs":[{"name":"previousOwner","type":"address","indexed":true,"internalType":"address"},{"name":"newOwner","type":"address","indexed":true,"internalType":"address"}],"anonymous":false},{"type":"event","name":"Paused","inputs":[{"name":"account","type":"address","indexed":false,"internalType":"address"}],"anonymous":false},{"type":"event","name":"Transfer","inputs":[{"name":"from","type":"address","indexed":true,"internalType":"address"},{"name":"to","type":"address","indexed":true,"internalType":"address"},{"name":"value","type":"uint256","indexed":false,"internalType":"uint256"}],"anonymous":false},{"type":"event","name":"Unpaused","inputs":[{"name":"account","type":"address","indexed":false,"internalType":"address"}],"anonymous":false},{"type":"error","name":"ERC20InsufficientAllowance","inputs":[{"name":"spender","type":"address","internalType":"address"},{"name":"allowance","type":"uint256","internalType":"uint256"},{"name":"needed","type":"uint256","internalType":"uint256"}]},{"type":"error","name":"ERC20InsufficientBalance","inputs":[{"name":"sender","type":"address","internalType":"address"},{"name":"balance","type":"uint256","internalType":"uint256"},{"name":"needed","type":"uint256","internalType":"uint256"}]},{"type":"error","name":"ERC20InvalidApprover","inputs":[{"name":"approver","type":"address","internalType":"address"}]},{"type":"error","name":"ERC20InvalidReceiver","inputs":[{"name":"receiver","type":"address","internalType":"address"}]},{"type":"error","name":"ERC20InvalidSender","inputs":[{"name":"sender","type":"address","internalType":"address"}]},{"type":"error","name":"ERC20InvalidSpender","inputs":[{"name":"spender","type":"address","internalType":"address"}]},{"type":"error","name":"EnforcedPause","inputs":[]},{"type":"error","name":"ExpectedPause","inputs":[]},{"type":"error","name":"OwnableInvalidOwner","inputs":[{"name":"owner","type":"address","internalType":"address"}]},{"type":"error","name":"OwnableUnauthorizedAccount","inputs":[{"name":"account","type":"address","internalType":"address"}]}],"bytecode":{"object":"0x608060405234801561000f575f5ffd5b50336040518060400160405280600781526020017f41626261455448000000000000000000000000000000000000000000000000008152506040518060400160405280600481526020017f4145544800000000000000000000000000000000000000000000000000000000815250816003908161008c919061079b565b50806004908161009c919061079b565b5050505f73ffffffffffffffffffffffffffffffffffffffff168173ffffffffffffffffffffffffffffffffffffffff160361010f575f6040517f1e4fbdf700000000000000000000000000000000000000000000000000000000815260040161010691906108a9565b60405180910390fd5b61011e8161015d60201b60201c565b506101583361013161022260201b60201c565b600a61013d9190610a2a565b6404e3b2920061014d9190610a74565b61022a60201b60201c565b610b45565b5f600560019054906101000a900473ffffffffffffffffffffffffffffffffffffffff16905081600560016101000a81548173ffffffffffffffffffffffffffffffffffffffff021916908373ffffffffffffffffffffffffffffffffffffffff1602179055508173ffffffffffffffffffffffffffffffffffffffff168173ffffffffffffffffffffffffffffffffffffffff167f8be0079c531659141344cd1fd0a4f28419497f9722a3daafe3b4186f6b6457e060405160405180910390a35050565b5f6012905090565b5f73ffffffffffffffffffffffffffffffffffffffff168273ffffffffffffffffffffffffffffffffffffffff160361029a575f6040517fec442f0500000000000000000000000000000000000000000000000000000000815260040161029191906108a9565b60405180910390fd5b6102ab5f83836102af60201b60201c565b5050565b6102c08383836102c560201b60201c565b505050565b6102d36102e960201b60201c565b6102e483838361033060201b60201c565b505050565b6102f761054960201b60201c565b1561032e576040517fd93c066500000000000000000000000000000000000000000000000000000000815260040160405180910390fd5b565b5f73ffffffffffffffffffffffffffffffffffffffff168373ffffffffffffffffffffffffffffffffffffffff1603610380578060025f8282546103749190610ab5565b9250508190555061044e565b5f5f5f8573ffffffffffffffffffffffffffffffffffffffff1673ffffffffffffffffffffffffffffffffffffffff1681526020019081526020015f2054905081811015610409578381836040517fe450d38c00000000000000000000000000000000000000000000000000000000815260040161040093929190610af7565b60405180910390fd5b8181035f5f8673ffffffffffffffffffffffffffffffffffffffff1673ffffffffffffffffffffffffffffffffffffffff1681526020019081526020015f2081905550505b5f73ffffffffffffffffffffffffffffffffffffffff168273ffffffffffffffffffffffffffffffffffffffff1603610495578060025f82825403925050819055506104df565b805f5f8473ffffffffffffffffffffffffffffffffffffffff1673ffffffffffffffffffffffffffffffffffffffff1681526020019081526020015f205f82825401925050819055505b8173ffffffffffffffffffffffffffffffffffffffff168373ffffffffffffffffffffffffffffffffffffffff167fddf252ad1be2c89b69c2b068fc378daa952ba7f163c4a11628f55a4df523b3ef8360405161053c9190610b2c565b60405180910390a3505050565b5f60055f9054906101000a900460ff16905090565b5f81519050919050565b7f4e487b71000000000000000000000000000000000000000000000000000000005f52604160045260245ffd5b7f4e487b71000000000000000000000000000000000000000000000000000000005f52602260045260245ffd5b5f60028204905060018216806105d957607f821691505b6020821081036105ec576105eb610595565b5b50919050565b5f819050815f5260205f209050919050565b5f6020601f8301049050919050565b5f82821b905092915050565b5f6008830261064e7fffffffffffffffffffffffffffffffffffffffffffffffffffffffffffffffff82610613565b6106588683610613565b95508019841693508086168417925050509392505050565b5f819050919050565b5f819050919050565b5f61069c61069761069284610670565b610679565b610670565b9050919050565b5f819050919050565b6106b583610682565b6106c96106c1826106a3565b84845461061f565b825550505050565b5f5f905090565b6106e06106d1565b6106eb8184846106ac565b505050565b5b8181101561070e576107035f826106d8565b6001810190506106f1565b5050565b601f82111561075357610724816105f2565b61072d84610604565b8101602085101561073c578190505b61075061074885610604565b8301826106f0565b50505b505050565b5f82821c905092915050565b5f6107735f1984600802610758565b1980831691505092915050565b5f61078b8383610764565b9150826002028217905092915050565b6107a48261055e565b67ffffffffffffffff8111156107bd576107bc610568565b5b6107c782546105c2565b6107d2828285610712565b5f60209050601f831160018114610803575f84156107f1578287015190505b6107fb8582610780565b865550610862565b601f198416610811866105f2565b5f5b8281101561083857848901518255600182019150602085019450602081019050610813565b868310156108555784890151610851601f891682610764565b8355505b6001600288020188555050505b505050505050565b5f73ffffffffffffffffffffffffffffffffffffffff82169050919050565b5f6108938261086a565b9050919050565b6108a381610889565b82525050565b5f6020820190506108bc5f83018461089a565b92915050565b7f4e487b71000000000000000000000000000000000000000000000000000000005f52601160045260245ffd5b5f8160011c9050919050565b5f5f8291508390505b6001851115610944578086048111156109205761091f6108c2565b5b600185161561092f5780820291505b808102905061093d856108ef565b9450610904565b94509492505050565b5f8261095c5760019050610a17565b81610969575f9050610a17565b816001811461097f5760028114610989576109b8565b6001915050610a17565b60ff84111561099b5761099a6108c2565b5b8360020a9150848211156109b2576109b16108c2565b5b50610a17565b5060208310610133831016604e8410600b84101617156109ed5782820a9050838111156109e8576109e76108c2565b5b610a17565b6109fa84848460016108fb565b92509050818404811115610a1157610a106108c2565b5b81810290505b9392505050565b5f60ff82169050919050565b5f610a3482610670565b9150610a3f83610a1e565b9250610a6c7fffffffffffffffffffffffffffffffffffffffffffffffffffffffffffffffff848461094d565b905092915050565b5f610a7e82610670565b9150610a8983610670565b9250828202610a9781610670565b91508282048414831517610aae57610aad6108c2565b5b5092915050565b5f610abf82610670565b9150610aca83610670565b9250828201905080821115610ae257610ae16108c2565b5b92915050565b610af181610670565b82525050565b5f606082019050610b0a5f83018661089a565b610b176020830185610ae8565b610b246040830184610ae8565b949350505050565b5f602082019050610b3f5f830184610ae8565b92915050565b61135180610b525f395ff3fe608060405234801561000f575f5ffd5b50600436106100fe575f3560e01c806370a082311161009557806395d89b411161006457806395d89b4114610262578063a9059cbb14610280578063dd62ed3e146102b0578063f2fde38b146102e0576100fe565b806370a0823114610200578063715018a6146102305780638456cb591461023a5780638da5cb5b14610244576100fe565b8063313ce567116100d1578063313ce5671461019e5780633f4ba83a146101bc57806342966c68146101c65780635c975abb146101e2576100fe565b806306fdde0314610102578063095ea7b31461012057806318160ddd1461015057806323b872dd1461016e575b5f5ffd5b61010a6102fc565b6040516101179190610f9f565b60405180910390f35b61013a60048036038101906101359190611050565b61038c565b60405161014791906110a8565b60405180910390f35b6101586103ae565b60405161016591906110d0565b60405180910390f35b610188600480360381019061018391906110e9565b6103b7565b60405161019591906110a8565b60405180910390f35b6101a66103e5565b6040516101b39190611154565b60405180910390f35b6101c46103ed565b005b6101e060048036038101906101db919061116d565b6103ff565b005b6101ea610414565b6040516101f791906110a8565b60405180910390f35b61021a60048036038101906102159190611198565b610429565b60405161022791906110d0565b60405180910390f35b61023861046e565b005b610242610481565b005b61024c610493565b60405161025991906111d2565b60405180910390f35b61026a6104bc565b6040516102779190610f9f565b60405180910390f35b61029a60048036038101906102959190611050565b61054c565b6040516102a791906110a8565b60405180910390f35b6102ca60048036038101906102c591906111eb565b61056e565b6040516102d791906110d0565b60405180910390f35b6102fa60048036038101906102f59190611198565b6105f0565b005b60606003805461030b90611256565b80601f016020809104026020016040519081016040528092919081815260200182805461033790611256565b80156103825780601f1061035957610100808354040283529160200191610382565b820191905f5260205f20905b81548152906001019060200180831161036557829003601f168201915b5050505050905090565b5f5f610396610674565b90506103a381858561067b565b600191505092915050565b5f600254905090565b5f5f6103c1610674565b90506103ce85828561068d565b6103d9858585610720565b60019150509392505050565b5f6012905090565b6103f5610810565b6103fd610897565b565b6104076108f8565b6104113382610939565b50565b5f60055f9054906101000a900460ff16905090565b5f5f5f8373ffffffffffffffffffffffffffffffffffffffff1673ffffffffffffffffffffffffffffffffffffffff1681526020019081526020015f20549050919050565b610476610810565b61047f5f6109b8565b565b610489610810565b610491610a7d565b565b5f600560019054906101000a900473ffffffffffffffffffffffffffffffffffffffff16905090565b6060600480546104cb90611256565b80601f01602080910402602001604051908101604052809291908181526020018280546104f790611256565b80156105425780601f1061051957610100808354040283529160200191610542565b820191905f5260205f20905b81548152906001019060200180831161052557829003601f168201915b5050505050905090565b5f5f610556610674565b9050610563818585610720565b600191505092915050565b5f60015f8473ffffffffffffffffffffffffffffffffffffffff1673ffffffffffffffffffffffffffffffffffffffff1681526020019081526020015f205f8373ffffffffffffffffffffffffffffffffffffffff1673ffffffffffffffffffffffffffffffffffffffff1681526020019081526020015f2054905092915050565b6105f8610810565b5f73ffffffffffffffffffffffffffffffffffffffff168173ffffffffffffffffffffffffffffffffffffffff1603610668575f6040517f1e4fbdf700000000000000000000000000000000000000000000000000000000815260040161065f91906111d2565b60405180910390fd5b610671816109b8565b50565b5f33905090565b6106888383836001610adf565b505050565b5f610698848461056e565b90507fffffffffffffffffffffffffffffffffffffffffffffffffffffffffffffffff81101561071a578181101561070b578281836040517ffb8f41b200000000000000000000000000000000000000000000000000000000815260040161070293929190611286565b60405180910390fd5b61071984848484035f610adf565b5b50505050565b5f73ffffffffffffffffffffffffffffffffffffffff168373ffffffffffffffffffffffffffffffffffffffff1603610790575f6040517f96c6fd1e00000000000000000000000000000000000000000000000000000000815260040161078791906111d2565b60405180910390fd5b5f73ffffffffffffffffffffffffffffffffffffffff168273ffffffffffffffffffffffffffffffffffffffff1603610800575f6040517fec442f050000000000000000000000000000000000000000000000000000000081526004016107f791906111d2565b60405180910390fd5b61080b838383610cae565b505050565b610818610674565b73ffffffffffffffffffffffffffffffffffffffff16610836610493565b73ffffffffffffffffffffffffffffffffffffffff161461089557610859610674565b6040517f118cdaa700000000000000000000000000000000000000000000000000000000815260040161088c91906111d2565b60405180910390fd5b565b61089f610cbe565b5f60055f6101000a81548160ff0219169083151502179055507f5db9ee0a495bf2e6ff9c91a7834c1ba4fdd244a5e8aa4e537bd38aeae4b073aa6108e1610674565b6040516108ee91906111d2565b60405180910390a1565b610900610414565b15610937576040517fd93c066500000000000000000000000000000000000000000000000000000000815260040160405180910390fd5b565b5f73ffffffffffffffffffffffffffffffffffffffff168273ffffffffffffffffffffffffffffffffffffffff16036109a9575f6040517f96c6fd1e0000000000000000000000000000000000000000000000000000000081526004016109a091906111d2565b60405180910390fd5b6109b4825f83610cae565b5050565b5f600560019054906101000a900473ffffffffffffffffffffffffffffffffffffffff16905081600560016101000a81548173ffffffffffffffffffffffffffffffffffffffff021916908373ffffffffffffffffffffffffffffffffffffffff1602179055508173ffffffffffffffffffffffffffffffffffffffff168173ffffffffffffffffffffffffffffffffffffffff167f8be0079c531659141344cd1fd0a4f28419497f9722a3daafe3b4186f6b6457e060405160405180910390a35050565b610a856108f8565b600160055f6101000a81548160ff0219169083151502179055507f62e78cea01bee320cd4e420270b5ea74000d11b0c9f74754ebdbfc544b05a258610ac8610674565b604051610ad591906111d2565b60405180910390a1565b5f73ffffffffffffffffffffffffffffffffffffffff168473ffffffffffffffffffffffffffffffffffffffff1603610b4f575f6040517fe602df05000000000000000000000000000000000000000000000000000000008152600401610b4691906111d2565b60405180910390fd5b5f73ffffffffffffffffffffffffffffffffffffffff168373ffffffffffffffffffffffffffffffffffffffff1603610bbf575f6040517f94280d62000000000000000000000000000000000000000000000000000000008152600401610bb691906111d2565b60405180910390fd5b8160015f8673ffffffffffffffffffffffffffffffffffffffff1673ffffffffffffffffffffffffffffffffffffffff1681526020019081526020015f205f8573ffffffffffffffffffffffffffffffffffffffff1673ffffffffffffffffffffffffffffffffffffffff1681526020019081526020015f20819055508015610ca8578273ffffffffffffffffffffffffffffffffffffffff168473ffffffffffffffffffffffffffffffffffffffff167f8c5be1e5ebec7d5bd14f71427d1e84f3dd0314c0f7b2291e5b200ac8c7c3b92584604051610c9f91906110d0565b60405180910390a35b50505050565b610cb9838383610cfe565b505050565b610cc6610414565b610cfc576040517f8dfc202b00000000000000000000000000000000000000000000000000000000815260040160405180910390fd5b565b610d066108f8565b610d11838383610d16565b505050565b5f73ffffffffffffffffffffffffffffffffffffffff168373ffffffffffffffffffffffffffffffffffffffff1603610d66578060025f828254610d5a91906112e8565b92505081905550610e34565b5f5f5f8573ffffffffffffffffffffffffffffffffffffffff1673ffffffffffffffffffffffffffffffffffffffff1681526020019081526020015f2054905081811015610def578381836040517fe450d38c000000000000000000000000000000000000000000000000000000008152600401610de693929190611286565b60405180910390fd5b8181035f5f8673ffffffffffffffffffffffffffffffffffffffff1673ffffffffffffffffffffffffffffffffffffffff1681526020019081526020015f2081905550505b5f73ffffffffffffffffffffffffffffffffffffffff168273ffffffffffffffffffffffffffffffffffffffff1603610e7b578060025f8282540392505081905550610ec5565b805f5f8473ffffffffffffffffffffffffffffffffffffffff1673ffffffffffffffffffffffffffffffffffffffff1681526020019081526020015f205f82825401925050819055505b8173ffffffffffffffffffffffffffffffffffffffff168373ffffffffffffffffffffffffffffffffffffffff167fddf252ad1be2c89b69c2b068fc378daa952ba7f163c4a11628f55a4df523b3ef83604051610f2291906110d0565b60405180910390a3505050565b5f81519050919050565b5f82825260208201905092915050565b8281835e5f83830152505050565b5f601f19601f8301169050919050565b5f610f7182610f2f565b610f7b8185610f39565b9350610f8b818560208601610f49565b610f9481610f57565b840191505092915050565b5f6020820190508181035f830152610fb78184610f67565b905092915050565b5f5ffd5b5f73ffffffffffffffffffffffffffffffffffffffff82169050919050565b5f610fec82610fc3565b9050919050565b610ffc81610fe2565b8114611006575f5ffd5b50565b5f8135905061101781610ff3565b92915050565b5f819050919050565b61102f8161101d565b8114611039575f5ffd5b50565b5f8135905061104a81611026565b92915050565b5f5f6040838503121561106657611065610fbf565b5b5f61107385828601611009565b92505060206110848582860161103c565b9150509250929050565b5f8115159050919050565b6110a28161108e565b82525050565b5f6020820190506110bb5f830184611099565b92915050565b6110ca8161101d565b82525050565b5f6020820190506110e35f8301846110c1565b92915050565b5f5f5f60608486031215611100576110ff610fbf565b5b5f61110d86828701611009565b935050602061111e86828701611009565b925050604061112f8682870161103c565b9150509250925092565b5f60ff82169050919050565b61114e81611139565b82525050565b5f6020820190506111675f830184611145565b92915050565b5f6020828403121561118257611181610fbf565b5b5f61118f8482850161103c565b91505092915050565b5f602082840312156111ad576111ac610fbf565b5b5f6111ba84828501611009565b91505092915050565b6111cc81610fe2565b82525050565b5f6020820190506111e55f8301846111c3565b92915050565b5f5f6040838503121561120157611200610fbf565b5b5f61120e85828601611009565b925050602061121f85828601611009565b9150509250929050565b7f4e487b71000000000000000000000000000000000000000000000000000000005f52602260045260245ffd5b5f600282049050600182168061126d57607f821691505b6020821081036112805761127f611229565b5b50919050565b5f6060820190506112995f8301866111c3565b6112a660208301856110c1565b6112b360408301846110c1565b949350505050565b7f4e487b71000000000000000000000000000000000000000000000000000000005f52601160045260245ffd5b5f6112f28261101d565b91506112fd8361101d565b9250828201905080821115611315576113146112bb565b5b9291505056fea2646970667358221220ea8212a05ff236d4977a935207612cf937e73d616e2eebf1967c3d3ee609bf6f64736f6c634300081e0033","linkReferences":{}},"methodIdentifiers":{"allowance(address,address)":"dd62ed3e","approve(address,uint256)":"095ea7b3","balanceOf(address)":"70a08231","burn(uint256)":"42966c68","decimals()":"313ce567","name()":"06fdde03","owner()":"8da5cb5b","pause()":"8456cb59","paused()":"5c975abb","renounceOwnership()":"715018a6","symbol()":"95d89b41","totalSupply()":"18160ddd","transfer(address,uint256)":"a9059cbb","transferFrom(address,address,uint256)":"23b872dd","transferOwnership(address)":"f2fde38b","unpause()":"3f4ba83a"},"id":28}