{"abi":[{"type":"function","name":"balanceOf","inputs":[{"name":"user","type":"address","internalType":"address"}],"outputs":[{"name":"","type":"uint256","internalType":"uint256"}],"stateMutability":"view"},{"type":"function","name":"balances","inputs":[{"name":"","type":"address","internalType":"address"}],"outputs":[{"name":"","type":"uint256","internalType":"uint256"}],"stateMutability":"view"},{"type":"function","name":"deposit","inputs":[],"outputs":[],"stateMutability":"payable"},{"type":"function","name":"withdraw","inputs":[{"name":"amount","type":"uint256","internalType":"uint256"}],"outputs":[],"stateMutability":"nonpayable"},{"type":"event","name":"Deposited","inputs":[{"name":"user","type":"address","indexed":true,"internalType":"address"},{"name":"amount","type":"uint256","indexed":false,"internalType":"uint256"}],"anonymous":false},{"type":"event","name":"Withdrawn","inputs":[{"name":"user","type":"address","indexed":true,"internalType":"address"},{"name":"amount","type":"uint256","indexed":false,"internalType":"uint256"}],"anonymous":false},{"type":"error","name":"ReentrancyGuardReentrantCall","inputs":[]}],"bytecode":{"object":"0x6080604052348015600e575f5ffd5b5060015f819055506107dd806100235f395ff3fe60806040526004361061003e575f3560e01c806327e235e3146100425780632e1a7d4d1461007e57806370a08231146100a6578063d0e30db0146100e2575b5f5ffd5b34801561004d575f5ffd5b50610068600480360381019061006391906104b4565b6100ec565b60405161007591906104f7565b60405180910390f35b348015610089575f5ffd5b506100a4600480360381019061009f919061053a565b610101565b005b3480156100b1575f5ffd5b506100cc60048036038101906100c791906104b4565b6102de565b6040516100d991906104f7565b60405180910390f35b6100ea610324565b005b6001602052805f5260405f205f915090505481565b610109610409565b8060015f3373ffffffffffffffffffffffffffffffffffffffff1673ffffffffffffffffffffffffffffffffffffffff1681526020019081526020015f20541015610189576040517f08c379a0000000000000000000000000000000000000000000000000000000008152600401610180906105bf565b60405180910390fd5b8060015f3373ffffffffffffffffffffffffffffffffffffffff1673ffffffffffffffffffffffffffffffffffffffff1681526020019081526020015f205f8282546101d5919061060a565b925050819055505f3373ffffffffffffffffffffffffffffffffffffffff16826040516102019061066a565b5f6040518083038185875af1925050503d805f811461023b576040519150601f19603f3d011682016040523d82523d5f602084013e610240565b606091505b5050905080610284576040517f08c379a000000000000000000000000000000000000000000000000000000000815260040161027b906106c8565b60405180910390fd5b3373ffffffffffffffffffffffffffffffffffffffff167f7084f5476618d8e60b11ef0d7d3f06914655adb8793e28ff7f018d4c76d505d5836040516102ca91906104f7565b60405180910390a2506102db61044d565b50565b5f60015f8373ffffffffffffffffffffffffffffffffffffffff1673ffffffffffffffffffffffffffffffffffffffff1681526020019081526020015f20549050919050565b5f3411610366576040517f08c379a000000000000000000000000000000000000000000000000000000000815260040161035d90610756565b60405180910390fd5b3460015f3373ffffffffffffffffffffffffffffffffffffffff1673ffffffffffffffffffffffffffffffffffffffff1681526020019081526020015f205f8282546103b29190610774565b925050819055503373ffffffffffffffffffffffffffffffffffffffff167f2da466a7b24304f47e87fa2e1e5a81b9831ce54fec19055ce277ca2f39ba42c4346040516103ff91906104f7565b60405180910390a2565b60025f5403610444576040517f3ee5aeb500000000000000000000000000000000000000000000000000000000815260040160405180910390fd5b60025f81905550565b60015f81905550565b5f5ffd5b5f73ffffffffffffffffffffffffffffffffffffffff82169050919050565b5f6104838261045a565b9050919050565b61049381610479565b811461049d575f5ffd5b50565b5f813590506104ae8161048a565b92915050565b5f602082840312156104c9576104c8610456565b5b5f6104d6848285016104a0565b91505092915050565b5f819050919050565b6104f1816104df565b82525050565b5f60208201905061050a5f8301846104e8565b92915050565b610519816104df565b8114610523575f5ffd5b50565b5f8135905061053481610510565b92915050565b5f6020828403121561054f5761054e610456565b5b5f61055c84828501610526565b91505092915050565b5f82825260208201905092915050565b7f496e73756666696369656e742062616c616e63650000000000000000000000005f82015250565b5f6105a9601483610565565b91506105b482610575565b602082019050919050565b5f6020820190508181035f8301526105d68161059d565b9050919050565b7f4e487b71000000000000000000000000000000000000000000000000000000005f52601160045260245ffd5b5f610614826104df565b915061061f836104df565b9250828203905081811115610637576106366105dd565b5b92915050565b5f81905092915050565b50565b5f6106555f8361063d565b915061066082610647565b5f82019050919050565b5f6106748261064a565b9150819050919050565b7f5472616e73666572206661696c656400000000000000000000000000000000005f82015250565b5f6106b2600f83610565565b91506106bd8261067e565b602082019050919050565b5f6020820190508181035f8301526106df816106a6565b9050919050565b7f4465706f73697420616d6f756e74206d757374206265206772656174657220745f8201527f68616e207a65726f000000000000000000000000000000000000000000000000602082015250565b5f610740602883610565565b915061074b826106e6565b604082019050919050565b5f6020820190508181035f83015261076d81610734565b9050919050565b5f61077e826104df565b9150610789836104df565b92508282019050808211156107a1576107a06105dd565b5b9291505056fea264697066735822122077f85555bdc8803e37b3e651b3bcdb9aba989a05a6f33d9629b8ec300d02381264736f6c634300081e0033","linkReferences":{}},"methodIdentifiers":{"balanceOf(address)":"70a08231","balances(address)":"27e235e3","deposit()":"d0e30db0","withdraw(uint256)":"2e1a7d4d"},"id":29}